{
  "contractName": "Counter",
  "abi": [
    {
      "constant": true,
      "inputs": [],
      "name": "count",
      "outputs": [
        {
          "internalType": "uint256",
          "name": "",
          "type": "uint256"
        }
      ],
      "payable": false,
      "stateMutability": "view",
      "type": "function"
    },
    {
      "inputs": [
        {
          "internalType": "uint256",
          "name": "_count",
          "type": "uint256"
        }
      ],
      "payable": false,
      "stateMutability": "nonpayable",
      "type": "constructor"
    },
    {
      "constant": false,
      "inputs": [],
      "name": "increment",
      "outputs": [],
      "payable": false,
      "stateMutability": "nonpayable",
      "type": "function"
    },
    {
      "constant": false,
      "inputs": [],
      "name": "decrement",
      "outputs": [],
      "payable": false,
      "stateMutability": "nonpayable",
      "type": "function"
    }
  ],
  "bytecode": "0x608060405234801561001057600080fd5b506040516101463803806101468339818101604052602081101561003357600080fd5b8101908080519060200190929190505050806000819055505060ec8061005a6000396000f3fe6080604052348015600f57600080fd5b50600436106059576000357c01000000000000000000000000000000000000000000000000000000009004806306661abd14605e5780632baeceb714607a578063d09de08a146082575b600080fd5b6064608a565b6040518082815260200191505060405180910390f35b60806090565b005b608860a4565b005b60005481565b600080815480929190600190039190505550565b600080815480929190600101919050555056fea265627a7a7231582037455f6d2788d2f6c60e5bbc07cba7cbeca21450b910a60ce3c1707c0287b59d64736f6c634300050b0032",
  "source": "pragma solidity ^0.5.11;\n\n\ncontract Counter {\n\n    uint public count;\n\n    constructor(uint _count) public {\n        count = _count;\n    }\n    \n    function increment() external {\n        count++;\n    }\n    \n    function decrement() external {\n        count--;\n    }\n}",
  "sourcePath": "/Users/donalddeanwalker/Sites/rake-project/contracts/Counter.sol",
  "compiler": {
    "name": "solc",
    "version": "0.5.11+commit.22be8592.Linux.g++"
  },
  "schemaVersion": "3.0.18-next.1",
  "updatedAt": "2019-12-11T04:20:45.767Z",
  "networkType": "ethereum",
  "devdoc": {
    "methods": {}
  },
  "userdoc": {
    "methods": {}
  }
}